:020000040800F2
:100000000010002001020008C7000008CD00000811
:10001000C1000008C1000008C1000008C1000008BC
:10002000C1000008C1000008C1000008D30000089A
:10003000C1000008C1000008D9000008DF00000866
:10004000C1000008C1000008C1000008C10000088C
:10005000C1000008C1000008C1000008C10000087C
:10006000C1000008C1000008C1000008C10000086C
:10007000C1000008C1000008C1000008C10000085C
:10008000C1000008C1000008C1000008C10000084C
:10009000C1000008C1000008C1000008C10000083C
:1000A000C1000008C1000008C1000008C10000082C
:1000B000C1000008C1000008C1000008C10000081C
:1000C00080B500AFFEE780B500AFFEE780B500AFBA
:1000D000FEE780B500AFFEE780B500AFFEE780B574
:1000E00000AFFEE780B584B000AF78600023FB600E
:1000F0000DE00023BB6003E0C046BB680133BB607A
:10010000BB68074A9342F7D9FB680133FB60FA6882
:100110007B689A42EDD3C046BD4604B080BDC04660
:10012000FE0F000080B582B000AF084B1B68084A84
:1001300013407B607B688022120313437B60034B78
:100140007A681A60C046BD4602B080BD14100240F5
:10015000FFFFF7FF80B582B000AF084B1B68084A6D
:1001600013407B607B688022D20213437B60034B89
:100170007A681A60C046BD4602B080BD00080048DB
:10018000FFFFF3FF80B582B000AF0200FB1D1A70C5
:10019000FB1D1A78044B012191400A001A60C046E9
:1001A000BD4602B080BDC0461808004880B582B088
:1001B00000AF0200FB1D1A70FB1D1B7810331A00E4
:1001C000044B012191400A001A60C046BD4602B0AE
:1001D00080BDC0461808004880B500AFFFF7A2FFF9
:1001E000FFF7B8FF0920FFF7CDFFFF20FFF77AFFE9
:1001F0000920FFF7DBFFFF20FFF774FFF2E7C0469F
:04020000FFF7EAFF1B
:0400000508000201EC
:00000001FF
